{
  "_format": "hh-sol-artifact-1",
  "contractName": "HorseNFT",
  "sourceName": "contracts/HorseNFT.sol",
  "abi": [
    {
      "inputs": [],
      "stateMutability": "nonpayable",
      "type": "constructor"
    },
    {
      "inputs": [
        {
          "internalType": "address",
          "name": "sender",
          "type": "address"
        },
        {
          "internalType": "uint256",
          "name": "tokenId",
          "type": "uint256"
        },
        {
          "internalType": "address",
          "name": "owner",
          "type": "address"
        }
      ],
      "name": "ERC721IncorrectOwner",
      "type": "error"
    },
    {
      "inputs": [
        {
          "internalType": "address",
          "name": "operator",
          "type": "address"
        },
        {
          "internalType": "uint256",
          "name": "tokenId",
          "type": "uint256"
        }
      ],
      "name": "ERC721InsufficientApproval",
      "type": "error"
    },
    {
      "inputs": [
        {
          "internalType": "address",
          "name": "approver",
          "type": "address"
        }
      ],
      "name": "ERC721InvalidApprover",
      "type": "error"
    },
    {
      "inputs": [
        {
          "internalType": "address",
          "name": "operator",
          "type": "address"
        }
      ],
      "name": "ERC721InvalidOperator",
      "type": "error"
    },
    {
      "inputs": [
        {
          "internalType": "address",
          "name": "owner",
          "type": "address"
        }
      ],
      "name": "ERC721InvalidOwner",
      "type": "error"
    },
    {
      "inputs": [
        {
          "internalType": "address",
          "name": "receiver",
          "type": "address"
        }
      ],
      "name": "ERC721InvalidReceiver",
      "type": "error"
    },
    {
      "inputs": [
        {
          "internalType": "address",
          "name": "sender",
          "type": "address"
        }
      ],
      "name": "ERC721InvalidSender",
      "type": "error"
    },
    {
      "inputs": [
        {
          "internalType": "uint256",
          "name": "tokenId",
          "type": "uint256"
        }
      ],
      "name": "ERC721NonexistentToken",
      "type": "error"
    },
    {
      "inputs": [
        {
          "internalType": "address",
          "name": "owner",
          "type": "address"
        }
      ],
      "name": "OwnableInvalidOwner",
      "type": "error"
    },
    {
      "inputs": [
        {
          "internalType": "address",
          "name": "account",
          "type": "address"
        }
      ],
      "name": "OwnableUnauthorizedAccount",
      "type": "error"
    },
    {
      "anonymous": false,
      "inputs": [
        {
          "indexed": true,
          "internalType": "address",
          "name": "owner",
          "type": "address"
        },
        {
          "indexed": true,
          "internalType": "address",
          "name": "approved",
          "type": "address"
        },
        {
          "indexed": true,
          "internalType": "uint256",
          "name": "tokenId",
          "type": "uint256"
        }
      ],
      "name": "Approval",
      "type": "event"
    },
    {
      "anonymous": false,
      "inputs": [
        {
          "indexed": true,
          "internalType": "address",
          "name": "owner",
          "type": "address"
        },
        {
          "indexed": true,
          "internalType": "address",
          "name": "operator",
          "type": "address"
        },
        {
          "indexed": false,
          "internalType": "bool",
          "name": "approved",
          "type": "bool"
        }
      ],
      "name": "ApprovalForAll",
      "type": "event"
    },
    {
      "anonymous": false,
      "inputs": [
        {
          "indexed": true,
          "internalType": "uint256",
          "name": "tokenId",
          "type": "uint256"
        },
        {
          "indexed": true,
          "internalType": "address",
          "name": "seller",
          "type": "address"
        }
      ],
      "name": "AuctionCancelled",
      "type": "event"
    },
    {
      "anonymous": false,
      "inputs": [
        {
          "indexed": true,
          "internalType": "uint256",
          "name": "tokenId",
          "type": "uint256"
        },
        {
          "indexed": true,
          "internalType": "address",
          "name": "winner",
          "type": "address"
        },
        {
          "indexed": false,
          "internalType": "uint256",
          "name": "amount",
          "type": "uint256"
        }
      ],
      "name": "AuctionEnded",
      "type": "event"
    },
    {
      "anonymous": false,
      "inputs": [
        {
          "indexed": true,
          "internalType": "uint256",
          "name": "tokenId",
          "type": "uint256"
        },
        {
          "indexed": true,
          "internalType": "address",
          "name": "seller",
          "type": "address"
        },
        {
          "indexed": false,
          "internalType": "uint256",
          "name": "startingPrice",
          "type": "uint256"
        },
        {
          "indexed": false,
          "internalType": "uint256",
          "name": "endTime",
          "type": "uint256"
        }
      ],
      "name": "AuctionStarted",
      "type": "event"
    },
    {
      "anonymous": false,
      "inputs": [
        {
          "indexed": false,
          "internalType": "uint256",
          "name": "_fromTokenId",
          "type": "uint256"
        },
        {
          "indexed": false,
          "internalType": "uint256",
          "name": "_toTokenId",
          "type": "uint256"
        }
      ],
      "name": "BatchMetadataUpdate",
      "type": "event"
    },
    {
      "anonymous": false,
      "inputs": [
        {
          "indexed": true,
          "internalType": "uint256",
          "name": "tokenId",
          "type": "uint256"
        },
        {
          "indexed": true,
          "internalType": "address",
          "name": "bidder",
          "type": "address"
        },
        {
          "indexed": false,
          "internalType": "uint256",
          "name": "amount",
          "type": "uint256"
        }
      ],
      "name": "BidPlaced",
      "type": "event"
    },
    {
      "anonymous": false,
      "inputs": [
        {
          "indexed": true,
          "internalType": "uint256",
          "name": "tokenId",
          "type": "uint256"
        },
        {
          "indexed": true,
          "internalType": "address",
          "name": "owner",
          "type": "address"
        },
        {
          "indexed": false,
          "internalType": "uint256",
          "name": "price",
          "type": "uint256"
        }
      ],
      "name": "HorseListed",
      "type": "event"
    },
    {
      "anonymous": false,
      "inputs": [
        {
          "indexed": true,
          "internalType": "uint256",
          "name": "tokenId",
          "type": "uint256"
        },
        {
          "indexed": false,
          "internalType": "string",
          "name": "name",
          "type": "string"
        },
        {
          "indexed": true,
          "internalType": "address",
          "name": "owner",
          "type": "address"
        },
        {
          "indexed": false,
          "internalType": "string",
          "name": "tokenURI",
          "type": "string"
        }
      ],
      "name": "HorseMinted",
      "type": "event"
    },
    {
      "anonymous": false,
      "inputs": [
        {
          "indexed": true,
          "internalType": "uint256",
          "name": "tokenId",
          "type": "uint256"
        },
        {
          "indexed": false,
          "internalType": "uint256",
          "name": "oldPrice",
          "type": "uint256"
        },
        {
          "indexed": false,
          "internalType": "uint256",
          "name": "newPrice",
          "type": "uint256"
        }
      ],
      "name": "HorsePriceUpdated",
      "type": "event"
    },
    {
      "anonymous": false,
      "inputs": [
        {
          "indexed": true,
          "internalType": "uint256",
          "name": "tokenId",
          "type": "uint256"
        },
        {
          "indexed": true,
          "internalType": "address",
          "name": "previousOwner",
          "type": "address"
        },
        {
          "indexed": true,
          "internalType": "address",
          "name": "newOwner",
          "type": "address"
        },
        {
          "indexed": false,
          "internalType": "uint256",
          "name": "price",
          "type": "uint256"
        }
      ],
      "name": "HorseSold",
      "type": "event"
    },
    {
      "anonymous": false,
      "inputs": [
        {
          "indexed": false,
          "internalType": "uint256",
          "name": "_tokenId",
          "type": "uint256"
        }
      ],
      "name": "MetadataUpdate",
      "type": "event"
    },
    {
      "anonymous": false,
      "inputs": [
        {
          "indexed": true,
          "internalType": "address",
          "name": "previousOwner",
          "type": "address"
        },
        {
          "indexed": true,
          "internalType": "address",
          "name": "newOwner",
          "type": "address"
        }
      ],
      "name": "OwnershipTransferred",
      "type": "event"
    },
    {
      "anonymous": false,
      "inputs": [
        {
          "indexed": true,
          "internalType": "address",
          "name": "from",
          "type": "address"
        },
        {
          "indexed": true,
          "internalType": "address",
          "name": "to",
          "type": "address"
        },
        {
          "indexed": true,
          "internalType": "uint256",
          "name": "tokenId",
          "type": "uint256"
        }
      ],
      "name": "Transfer",
      "type": "event"
    },
    {
      "inputs": [
        {
          "internalType": "uint256",
          "name": "_tokenId",
          "type": "uint256"
        }
      ],
      "name": "acceptBid",
      "outputs": [],
      "stateMutability": "nonpayable",
      "type": "function"
    },
    {
      "inputs": [
        {
          "internalType": "address",
          "name": "to",
          "type": "address"
        },
        {
          "internalType": "uint256",
          "name": "tokenId",
          "type": "uint256"
        }
      ],
      "name": "approve",
      "outputs": [],
      "stateMutability": "nonpayable",
      "type": "function"
    },
    {
      "inputs": [
        {
          "internalType": "uint256",
          "name": "",
          "type": "uint256"
        }
      ],
      "name": "auctions",
      "outputs": [
        {
          "internalType": "uint256",
          "name": "tokenId",
          "type": "uint256"
        },
        {
          "internalType": "address payable",
          "name": "seller",
          "type": "address"
        },
        {
          "internalType": "uint256",
          "name": "startingPrice",
          "type": "uint256"
        },
        {
          "internalType": "uint256",
          "name": "highestBid",
          "type": "uint256"
        },
        {
          "internalType": "address payable",
          "name": "highestBidder",
          "type": "address"
        },
        {
          "internalType": "uint256",
          "name": "endTime",
          "type": "uint256"
        },
        {
          "internalType": "bool",
          "name": "isActive",
          "type": "bool"
        },
        {
          "internalType": "bool",
          "name": "isEnded",
          "type": "bool"
        }
      ],
      "stateMutability": "view",
      "type": "function"
    },
    {
      "inputs": [
        {
          "internalType": "address",
          "name": "owner",
          "type": "address"
        }
      ],
      "name": "balanceOf",
      "outputs": [
        {
          "internalType": "uint256",
          "name": "",
          "type": "uint256"
        }
      ],
      "stateMutability": "view",
      "type": "function"
    },
    {
      "inputs": [
        {
          "internalType": "uint256",
          "name": "_tokenId",
          "type": "uint256"
        }
      ],
      "name": "buyHorse",
      "outputs": [],
      "stateMutability": "payable",
      "type": "function"
    },
    {
      "inputs": [
        {
          "internalType": "uint256",
          "name": "_tokenId",
          "type": "uint256"
        }
      ],
      "name": "cancelAuction",
      "outputs": [],
      "stateMutability": "nonpayable",
      "type": "function"
    },
    {
      "inputs": [
        {
          "internalType": "uint256",
          "name": "tokenId",
          "type": "uint256"
        }
      ],
      "name": "getApproved",
      "outputs": [
        {
          "internalType": "address",
          "name": "",
          "type": "address"
        }
      ],
      "stateMutability": "view",
      "type": "function"
    },
    {
      "inputs": [
        {
          "internalType": "uint256",
          "name": "_tokenId",
          "type": "uint256"
        }
      ],
      "name": "getAuction",
      "outputs": [
        {
          "components": [
            {
              "internalType": "uint256",
              "name": "tokenId",
              "type": "uint256"
            },
            {
              "internalType": "address payable",
              "name": "seller",
              "type": "address"
            },
            {
              "internalType": "uint256",
              "name": "startingPrice",
              "type": "uint256"
            },
            {
              "internalType": "uint256",
              "name": "highestBid",
              "type": "uint256"
            },
            {
              "internalType": "address payable",
              "name": "highestBidder",
              "type": "address"
            },
            {
              "internalType": "uint256",
              "name": "endTime",
              "type": "uint256"
            },
            {
              "internalType": "bool",
              "name": "isActive",
              "type": "bool"
            },
            {
              "internalType": "bool",
              "name": "isEnded",
              "type": "bool"
            }
          ],
          "internalType": "struct HorseNFT.Auction",
          "name": "",
          "type": "tuple"
        }
      ],
      "stateMutability": "view",
      "type": "function"
    },
    {
      "inputs": [
        {
          "internalType": "address",
          "name": "_owner",
          "type": "address"
        }
      ],
      "name": "getHorsesByOwner",
      "outputs": [
        {
          "internalType": "uint256[]",
          "name": "",
          "type": "uint256[]"
        }
      ],
      "stateMutability": "view",
      "type": "function"
    },
    {
      "inputs": [],
      "name": "getHorsesForSale",
      "outputs": [
        {
          "components": [
            {
              "internalType": "uint256",
              "name": "tokenId",
              "type": "uint256"
            },
            {
              "internalType": "string",
              "name": "name",
              "type": "string"
            },
            {
              "internalType": "string",
              "name": "breed",
              "type": "string"
            },
            {
              "internalType": "uint256",
              "name": "age",
              "type": "uint256"
            },
            {
              "internalType": "uint256",
              "name": "price",
              "type": "uint256"
            },
            {
              "internalType": "string",
              "name": "ipfsHash",
              "type": "string"
            },
            {
              "internalType": "address payable",
              "name": "owner",
              "type": "address"
            },
            {
              "internalType": "bool",
              "name": "isForSale",
              "type": "bool"
            }
          ],
          "internalType": "struct HorseNFT.Horse[]",
          "name": "",
          "type": "tuple[]"
        }
      ],
      "stateMutability": "view",
      "type": "function"
    },
    {
      "inputs": [],
      "name": "getTotalHorses",
      "outputs": [
        {
          "internalType": "uint256",
          "name": "",
          "type": "uint256"
        }
      ],
      "stateMutability": "view",
      "type": "function"
    },
    {
      "inputs": [
        {
          "internalType": "uint256",
          "name": "",
          "type": "uint256"
        }
      ],
      "name": "horses",
      "outputs": [
        {
          "internalType": "uint256",
          "name": "tokenId",
          "type": "uint256"
        },
        {
          "internalType": "string",
          "name": "name",
          "type": "string"
        },
        {
          "internalType": "string",
          "name": "breed",
          "type": "string"
        },
        {
          "internalType": "uint256",
          "name": "age",
          "type": "uint256"
        },
        {
          "internalType": "uint256",
          "name": "price",
          "type": "uint256"
        },
        {
          "internalType": "string",
          "name": "ipfsHash",
          "type": "string"
        },
        {
          "internalType": "address payable",
          "name": "owner",
          "type": "address"
        },
        {
          "internalType": "bool",
          "name": "isForSale",
          "type": "bool"
        }
      ],
      "stateMutability": "view",
      "type": "function"
    },
    {
      "inputs": [
        {
          "internalType": "address",
          "name": "owner",
          "type": "address"
        },
        {
          "internalType": "address",
          "name": "operator",
          "type": "address"
        }
      ],
      "name": "isApprovedForAll",
      "outputs": [
        {
          "internalType": "bool",
          "name": "",
          "type": "bool"
        }
      ],
      "stateMutability": "view",
      "type": "function"
    },
    {
      "inputs": [
        {
          "internalType": "string",
          "name": "_name",
          "type": "string"
        },
        {
          "internalType": "string",
          "name": "_breed",
          "type": "string"
        },
        {
          "internalType": "uint256",
          "name": "_age",
          "type": "uint256"
        },
        {
          "internalType": "uint256",
          "name": "_price",
          "type": "uint256"
        },
        {
          "internalType": "string",
          "name": "_ipfsHash",
          "type": "string"
        },
        {
          "internalType": "string",
          "name": "_tokenURI",
          "type": "string"
        }
      ],
      "name": "mintHorse",
      "outputs": [
        {
          "internalType": "uint256",
          "name": "",
          "type": "uint256"
        }
      ],
      "stateMutability": "nonpayable",
      "type": "function"
    },
    {
      "inputs": [],
      "name": "name",
      "outputs": [
        {
          "internalType": "string",
          "name": "",
          "type": "string"
        }
      ],
      "stateMutability": "view",
      "type": "function"
    },
    {
      "inputs": [],
      "name": "owner",
      "outputs": [
        {
          "internalType": "address",
          "name": "",
          "type": "address"
        }
      ],
      "stateMutability": "view",
      "type": "function"
    },
    {
      "inputs": [
        {
          "internalType": "uint256",
          "name": "tokenId",
          "type": "uint256"
        }
      ],
      "name": "ownerOf",
      "outputs": [
        {
          "internalType": "address",
          "name": "",
          "type": "address"
        }
      ],
      "stateMutability": "view",
      "type": "function"
    },
    {
      "inputs": [
        {
          "internalType": "uint256",
          "name": "",
          "type": "uint256"
        },
        {
          "internalType": "address",
          "name": "",
          "type": "address"
        }
      ],
      "name": "pendingReturns",
      "outputs": [
        {
          "internalType": "uint256",
          "name": "",
          "type": "uint256"
        }
      ],
      "stateMutability": "view",
      "type": "function"
    },
    {
      "inputs": [
        {
          "internalType": "uint256",
          "name": "_tokenId",
          "type": "uint256"
        }
      ],
      "name": "placeBid",
      "outputs": [],
      "stateMutability": "payable",
      "type": "function"
    },
    {
      "inputs": [],
      "name": "platformFee",
      "outputs": [
        {
          "internalType": "uint256",
          "name": "",
          "type": "uint256"
        }
      ],
      "stateMutability": "view",
      "type": "function"
    },
    {
      "inputs": [],
      "name": "platformOwner",
      "outputs": [
        {
          "internalType": "address",
          "name": "",
          "type": "address"
        }
      ],
      "stateMutability": "view",
      "type": "function"
    },
    {
      "inputs": [],
      "name": "renounceOwnership",
      "outputs": [],
      "stateMutability": "nonpayable",
      "type": "function"
    },
    {
      "inputs": [
        {
          "internalType": "address",
          "name": "from",
          "type": "address"
        },
        {
          "internalType": "address",
          "name": "to",
          "type": "address"
        },
        {
          "internalType": "uint256",
          "name": "tokenId",
          "type": "uint256"
        }
      ],
      "name": "safeTransferFrom",
      "outputs": [],
      "stateMutability": "nonpayable",
      "type": "function"
    },
    {
      "inputs": [
        {
          "internalType": "address",
          "name": "from",
          "type": "address"
        },
        {
          "internalType": "address",
          "name": "to",
          "type": "address"
        },
        {
          "internalType": "uint256",
          "name": "tokenId",
          "type": "uint256"
        },
        {
          "internalType": "bytes",
          "name": "data",
          "type": "bytes"
        }
      ],
      "name": "safeTransferFrom",
      "outputs": [],
      "stateMutability": "nonpayable",
      "type": "function"
    },
    {
      "inputs": [
        {
          "internalType": "address",
          "name": "operator",
          "type": "address"
        },
        {
          "internalType": "bool",
          "name": "approved",
          "type": "bool"
        }
      ],
      "name": "setApprovalForAll",
      "outputs": [],
      "stateMutability": "nonpayable",
      "type": "function"
    },
    {
      "inputs": [
        {
          "internalType": "uint256",
          "name": "_tokenId",
          "type": "uint256"
        },
        {
          "internalType": "uint256",
          "name": "_startingPrice",
          "type": "uint256"
        },
        {
          "internalType": "uint256",
          "name": "_durationInHours",
          "type": "uint256"
        }
      ],
      "name": "startAuction",
      "outputs": [],
      "stateMutability": "nonpayable",
      "type": "function"
    },
    {
      "inputs": [
        {
          "internalType": "bytes4",
          "name": "interfaceId",
          "type": "bytes4"
        }
      ],
      "name": "supportsInterface",
      "outputs": [
        {
          "internalType": "bool",
          "name": "",
          "type": "bool"
        }
      ],
      "stateMutability": "view",
      "type": "function"
    },
    {
      "inputs": [],
      "name": "symbol",
      "outputs": [
        {
          "internalType": "string",
          "name": "",
          "type": "string"
        }
      ],
      "stateMutability": "view",
      "type": "function"
    },
    {
      "inputs": [
        {
          "internalType": "uint256",
          "name": "_tokenId",
          "type": "uint256"
        }
      ],
      "name": "toggleSaleStatus",
      "outputs": [],
      "stateMutability": "nonpayable",
      "type": "function"
    },
    {
      "inputs": [
        {
          "internalType": "uint256",
          "name": "",
          "type": "uint256"
        }
      ],
      "name": "tokenExists",
      "outputs": [
        {
          "internalType": "bool",
          "name": "",
          "type": "bool"
        }
      ],
      "stateMutability": "view",
      "type": "function"
    },
    {
      "inputs": [
        {
          "internalType": "uint256",
          "name": "tokenId",
          "type": "uint256"
        }
      ],
      "name": "tokenURI",
      "outputs": [
        {
          "internalType": "string",
          "name": "",
          "type": "string"
        }
      ],
      "stateMutability": "view",
      "type": "function"
    },
    {
      "inputs": [
        {
          "internalType": "address",
          "name": "from",
          "type": "address"
        },
        {
          "internalType": "address",
          "name": "to",
          "type": "address"
        },
        {
          "internalType": "uint256",
          "name": "tokenId",
          "type": "uint256"
        }
      ],
      "name": "transferFrom",
      "outputs": [],
      "stateMutability": "nonpayable",
      "type": "function"
    },
    {
      "inputs": [
        {
          "internalType": "address",
          "name": "newOwner",
          "type": "address"
        }
      ],
      "name": "transferOwnership",
      "outputs": [],
      "stateMutability": "nonpayable",
      "type": "function"
    },
    {
      "inputs": [
        {
          "internalType": "uint256",
          "name": "_tokenId",
          "type": "uint256"
        },
        {
          "internalType": "uint256",
          "name": "_newPrice",
          "type": "uint256"
        }
      ],
      "name": "updatePrice",
      "outputs": [],
      "stateMutability": "nonpayable",
      "type": "function"
    },
    {
      "inputs": [
        {
          "internalType": "uint256",
          "name": "_tokenId",
          "type": "uint256"
        }
      ],
      "name": "withdrawRefund",
      "outputs": [],
      "stateMutability": "nonpayable",
      "type": "function"
    }
  ],
  "bytecode": "0x60806040526019600955348015610014575f80fd5b50336040518060400160405280600a8152602001692437b939b2a1b430b4b760b11b81525060405180604001604052806005815260200164484f52534560d81b815250815f908161006591906101b0565b50600161007282826101b0565b5050506001600160a01b0381166100a257604051631e4fbdf760e01b81525f600482015260240160405180910390fd5b6100ab816100c7565b50600a80546001600160a01b031916331790555f60085561026f565b600780546001600160a01b038381166001600160a01b0319831681179093556040519116919082907f8be0079c531659141344cd1fd0a4f28419497f9722a3daafe3b4186f6b6457e0905f90a35050565b634e487b7160e01b5f52604160045260245ffd5b600181811c9082168061014057607f821691505b60208210810361015e57634e487b7160e01b5f52602260045260245ffd5b50919050565b601f8211156101ab57805f5260205f20601f840160051c810160208510156101895750805b601f840160051c820191505b818110156101a8575f8155600101610195565b50505b505050565b81516001600160401b038111156101c9576101c9610118565b6101dd816101d7845461012c565b84610164565b602080601f831160018114610210575f84156101f95750858301515b5f19600386901b1c1916600185901b178555610267565b5f85815260208120601f198616915b8281101561023e5788860151825594840194600190910190840161021f565b508582101561025b57878501515f19600388901b60f8161c191681555b505060018460011b0185555b505050505050565b61344b8061027c5f395ff3fe6080604052600436106101fb575f3560e01c806382367b2d11610113578063a078c1a01161009d578063c67940b21161006d578063c67940b2146107a1578063c87b56dd146107c2578063c8b62d64146107e1578063e985e9c51461080d578063f2fde38b1461082c575f80fd5b8063a078c1a014610730578063a22cb4651461074f578063b88d4fde1461076e578063b9fef9f91461078d575f80fd5b806391e078bb116100e357806391e078bb146106ac57806395d89b41146106cb57806396b5a755146106df5780639979ef45146106fe5780639d15349514610711575f80fd5b806382367b2d146106075780638da5cb5b146106265780638ddac1ef146106435780638f8b5cde14610679575f80fd5b806338ac94c1116101945780636352211e116101645780636352211e1461045257806370a0823114610471578063715018a61461049057806378bd7935146104a4578063790be9e8146105f4575f80fd5b806338ac94c11461033b57806342842e0e1461035a5780634df8ccb114610379578063571a26a014610398575f80fd5b8063095ea7b3116101cf578063095ea7b3146102b957806323b872dd146102da57806326232a2e146102f95780632b1fd58a1461031c575f80fd5b8062923f9e146101ff57806301ffc9a71461024257806306fdde0314610261578063081812fc14610282575b5f80fd5b34801561020a575f80fd5b5061022d610219366004612ba7565b600c6020525f908152604090205460ff1681565b60405190151581526020015b60405180910390f35b34801561024d575f80fd5b5061022d61025c366004612bd3565b61084b565b34801561026c575f80fd5b50610275610875565b6040516102399190612c1c565b34801561028d575f80fd5b506102a161029c366004612ba7565b610904565b6040516001600160a01b039091168152602001610239565b3480156102c4575f80fd5b506102d86102d3366004612c49565b61092b565b005b3480156102e5575f80fd5b506102d86102f4366004612c71565b61093a565b348015610304575f80fd5b5061030e60095481565b604051908152602001610239565b348015610327575f80fd5b506102d8610336366004612ba7565b6109c8565b348015610346575f80fd5b5061030e610355366004612d4f565b610bdf565b348015610365575f80fd5b506102d8610374366004612c71565b610e5d565b348015610384575f80fd5b50600a546102a1906001600160a01b031681565b3480156103a3575f80fd5b506104066103b2366004612ba7565b600d6020525f9081526040902080546001820154600283015460038401546004850154600586015460069096015494956001600160a01b039485169593949293929091169160ff8082169161010090041688565b604080519889526001600160a01b0397881660208a015288019590955260608701939093529316608085015260a084019290925290151560c0830152151560e082015261010001610239565b34801561045d575f80fd5b506102a161046c366004612ba7565b610e7c565b34801561047c575f80fd5b5061030e61048b366004612e06565b610e86565b34801561049b575f80fd5b506102d8610ecb565b3480156104af575f80fd5b506105826104be366004612ba7565b60408051610100810182525f80825260208201819052918101829052606081018290526080810182905260a0810182905260c0810182905260e0810191909152505f908152600d6020908152604091829020825161010080820185528254825260018301546001600160a01b03908116948301949094526002830154948201949094526003820154606082015260048201549092166080830152600581015460a08301526006015460ff808216151560c0840152929004909116151560e082015290565b60405161023991905f6101008201905082518252602083015160018060a01b0380821660208501526040850151604085015260608501516060850152806080860151166080850152505060a083015160a083015260c0830151151560c083015260e0830151151560e083015292915050565b6102d8610602366004612ba7565b610ede565b348015610612575f80fd5b506102d8610621366004612e1f565b611183565b348015610631575f80fd5b506007546001600160a01b03166102a1565b34801561064e575f80fd5b5061030e61065d366004612e3f565b600e60209081525f928352604080842090915290825290205481565b348015610684575f80fd5b50610698610693366004612ba7565b61128c565b604051610239989796959493929190612e69565b3480156106b7575f80fd5b506102d86106c6366004612edc565b61146e565b3480156106d6575f80fd5b50610275611779565b3480156106ea575f80fd5b506102d86106f9366004612ba7565b611788565b6102d861070c366004612ba7565b6118d3565b34801561071c575f80fd5b506102d861072b366004612ba7565b611ac9565b34801561073b575f80fd5b506102d861074a366004612ba7565b611b68565b34801561075a575f80fd5b506102d8610769366004612f05565b611bf9565b348015610779575f80fd5b506102d8610788366004612f3e565b611c04565b348015610798575f80fd5b5060085461030e565b3480156107ac575f80fd5b506107b5611c1c565b6040516102399190612fb5565b3480156107cd575f80fd5b506102756107dc366004612ba7565b611fc2565b3480156107ec575f80fd5b506108006107fb366004612e06565b612043565b60405161023991906130a1565b348015610818575f80fd5b5061022d6108273660046130e4565b612185565b348015610837575f80fd5b506102d8610846366004612e06565b6121b2565b5f6001600160e01b03198216632483248360e11b148061086f575061086f826121ef565b92915050565b60605f80546108839061310c565b80601f01602080910402602001604051908101604052809291908181526020018280546108af9061310c565b80156108fa5780601f106108d1576101008083540402835291602001916108fa565b820191905f5260205f20905b8154815290600101906020018083116108dd57829003601f168201915b5050505050905090565b5f61090e8261223e565b505f828152600460205260409020546001600160a01b031661086f565b610936828233612276565b5050565b6001600160a01b03821661096857604051633250574960e11b81525f60048201526024015b60405180910390fd5b5f610974838333612283565b9050836001600160a01b0316816001600160a01b0316146109c2576040516364283d7b60e01b81526001600160a01b038086166004830152602482018490528216604482015260640161095f565b50505050565b5f818152600c6020526040902054819060ff166109f75760405162461bcd60e51b815260040161095f90613144565b8133610a0282610e7c565b6001600160a01b031614610a285760405162461bcd60e51b815260040161095f90613172565b5f838152600d60205260409020600681015460ff16610a595760405162461bcd60e51b815260040161095f9061319f565b60048101546001600160a01b0316610aa45760405162461bcd60e51b815260206004820152600e60248201526d139bc8189a591cc81c1b1858d95960921b604482015260640161095f565b600481015460038201546006808401805461ffff19166101001790555f878152600b602052604090200180546001600160a81b0319166001600160a01b039093169283179055610af5338388612375565b5f6103e860095483610b0791906131de565b610b1191906131f5565b90505f610b1e8284613214565b60018601546040519192506001600160a01b03169082156108fc029083905f818181858888f19350505050158015610b58573d5f803e3d5ffd5b50600a546040516001600160a01b039091169083156108fc029084905f818181858888f19350505050158015610b90573d5f803e3d5ffd5b50836001600160a01b0316887fd2aa34a4fdbbc6dff6a3e56f46e0f3ae2a31d7785ff3487aa5c95c642acea50185604051610bcd91815260200190565b60405180910390a35050505050505050565b5f80875111610c275760405162461bcd60e51b81526020600482015260146024820152734e616d652063616e6e6f7420626520656d70747960601b604482015260640161095f565b5f8411610c765760405162461bcd60e51b815260206004820152601c60248201527f5072696365206d7573742062652067726561746572207468616e203000000000604482015260640161095f565b5f835111610cbb5760405162461bcd60e51b815260206004820152601260248201527112541194c81a185cda081c995c5d5a5c995960721b604482015260640161095f565b60088054905f610cca83613227565b9091555050600854610cdc3382612422565b610ce6818461243b565b604080516101008101825282815260208082018b81528284018b9052606083018a90526080830189905260a083018890523360c0840152600160e084018190525f868152600b909352939091208251815590519192909190820190610d4b9082613283565b5060408201516002820190610d609082613283565b50606082015160038201556080820151600482015560a08201516005820190610d899082613283565b5060c08201516006909101805460e0909301511515600160a01b026001600160a81b03199093166001600160a01b03909216919091179190911790555f818152600c602052604090819020805460ff1916600117905551339082907fb05d263112fd8b2ab07706864711fca5736aa825a565436f7159b35ad98a517690610e13908c90889061333f565b60405180910390a3604051858152339082907f5738801e56b129815e6b6925eaf11c8fb217857a40d9e5fd6e2d09fdb34ca9539060200160405180910390a3979650505050505050565b610e7783838360405180602001604052805f815250611c04565b505050565b5f61086f8261223e565b5f6001600160a01b038216610eb0576040516322718ad960e21b81525f600482015260240161095f565b506001600160a01b03165f9081526003602052604090205490565b610ed361248a565b610edc5f6124b7565b565b5f818152600c6020526040902054819060ff16610f0d5760405162461bcd60e51b815260040161095f90613144565b5f828152600b602052604090206006810154600160a01b900460ff16610f6d5760405162461bcd60e51b8152602060048201526015602482015274486f727365206973206e6f7420666f722073616c6560581b604482015260640161095f565b60068101546001600160a01b03163303610fc95760405162461bcd60e51b815260206004820152601a60248201527f596f7520616c7265616479206f776e207468697320686f727365000000000000604482015260640161095f565b80600401543410156110145760405162461bcd60e51b8152602060048201526014602482015273125b9cdd59999a58da595b9d081c185e5b595b9d60621b604482015260640161095f565b600681015460048201546009546001600160a01b03909216915f906103e89061103d90846131de565b61104791906131f5565b90505f6110548284613214565b6006860180546001600160a81b0319163360ff60a01b1981169190911790915590915061108390859089612375565b6040516001600160a01b0385169082156108fc029083905f818181858888f193505050501580156110b6573d5f803e3d5ffd5b50600a546040516001600160a01b039091169083156108fc029084905f818181858888f193505050501580156110ee573d5f803e3d5ffd5b508234111561112c57336108fc6111058534613214565b6040518115909202915f818181858888f1935050505015801561112a573d5f803e3d5ffd5b505b336001600160a01b0316846001600160a01b0316887f1e90c335ffd8b8c726f7fac7f55490aaad9e25b81a9961c46da3691ceda6e96d8660405161117291815260200190565b60405180910390a450505050505050565b5f828152600c6020526040902054829060ff166111b25760405162461bcd60e51b815260040161095f90613144565b82336111bd82610e7c565b6001600160a01b0316146111e35760405162461bcd60e51b815260040161095f90613172565b5f83116112325760405162461bcd60e51b815260206004820152601c60248201527f5072696365206d7573742062652067726561746572207468616e203000000000604482015260640161095f565b5f848152600b602090815260409182902060040180549086905582518181529182018690529186917ff92762e44f0ad660c475823e353aebf878406219bd6ff37d183df7bf5d6e8201910160405180910390a25050505050565b600b6020525f9081526040902080546001820180549192916112ad9061310c565b80601f01602080910402602001604051908101604052809291908181526020018280546112d99061310c565b80156113245780601f106112fb57610100808354040283529160200191611324565b820191905f5260205f20905b81548152906001019060200180831161130757829003601f168201915b5050505050908060020180546113399061310c565b80601f01602080910402602001604051908101604052809291908181526020018280546113659061310c565b80156113b05780601f10611387576101008083540402835291602001916113b0565b820191905f5260205f20905b81548152906001019060200180831161139357829003601f168201915b5050505050908060030154908060040154908060050180546113d19061310c565b80601f01602080910402602001604051908101604052809291908181526020018280546113fd9061310c565b80156114485780601f1061141f57610100808354040283529160200191611448565b820191905f5260205f20905b81548152906001019060200180831161142b57829003601f168201915b505050600690930154919250506001600160a01b0381169060ff600160a01b9091041688565b5f838152600c6020526040902054839060ff1661149d5760405162461bcd60e51b815260040161095f90613144565b83336114a882610e7c565b6001600160a01b0316146114ce5760405162461bcd60e51b815260040161095f90613172565b5f858152600d602052604090206006015460ff16156115285760405162461bcd60e51b815260206004820152601660248201527541756374696f6e20616c72656164792061637469766560501b604482015260640161095f565b5f84116115775760405162461bcd60e51b815260206004820152601a60248201527f5374617274696e67207072696365206d757374206265203e2030000000000000604482015260640161095f565b5f83116115bd5760405162461bcd60e51b815260206004820152601460248201527304475726174696f6e206d757374206265203e20360641b604482015260640161095f565b5f6115ca84610e106131de565b6115d4904261336c565b9050604051806101000160405280878152602001336001600160a01b031681526020018681526020015f81526020015f6001600160a01b031681526020018281526020016001151581526020015f1515815250600d5f8881526020019081526020015f205f820151815f01556020820151816001015f6101000a8154816001600160a01b0302191690836001600160a01b0316021790555060408201518160020155606082015181600301556080820151816004015f6101000a8154816001600160a01b0302191690836001600160a01b0316021790555060a0820151816005015560c0820151816006015f6101000a81548160ff02191690831515021790555060e08201518160060160016101000a81548160ff0219169083151502179055509050505f600b5f8881526020019081526020015f2060060160146101000a81548160ff021916908315150217905550336001600160a01b0316867fbf6dc7bdf2f23af5a506fe03ee1221f47d023a2227fbc949c6b812ae44534e6d8784604051611769929190918252602082015260400190565b60405180910390a3505050505050565b6060600180546108839061310c565b5f818152600c6020526040902054819060ff166117b75760405162461bcd60e51b815260040161095f90613144565b81336117c282610e7c565b6001600160a01b0316146117e85760405162461bcd60e51b815260040161095f90613172565b5f838152600d60205260409020600681015460ff166118195760405162461bcd60e51b815260040161095f9061319f565b60048101546001600160a01b0316156118745760405162461bcd60e51b815260206004820152601e60248201527f43616e6e6f742063616e63656c20776974682061637469766520626964730000604482015260640161095f565b6006808201805460ff191690555f858152600b6020526040808220909201805460ff60a01b1916600160a01b1790559051339186917f10ac9f0bb365b5d22d7bec500408692f23fdf83eadfec71615ef88b4c1134f0e9190a350505050565b5f818152600c6020526040902054819060ff166119025760405162461bcd60e51b815260040161095f90613144565b5f828152600d60205260409020600681015460ff166119335760405162461bcd60e51b815260040161095f9061319f565b8060050154421061197a5760405162461bcd60e51b8152602060048201526011602482015270105d58dd1a5bdb881a185cc8195b991959607a1b604482015260640161095f565b60018101546001600160a01b031633036119ca5760405162461bcd60e51b815260206004820152601160248201527014d95b1b195c8818d85b9b9bdd08189a59607a1b604482015260640161095f565b8060030154341180156119e1575080600201543410155b611a1b5760405162461bcd60e51b815260206004820152600b60248201526a42696420746f6f206c6f7760a81b604482015260640161095f565b60048101546001600160a01b031615611a6e5760038101545f848152600e6020908152604080832060048601546001600160a01b0316845290915281208054909190611a6890849061336c565b90915550505b34600382018190556004820180546001600160a01b031916339081179091556040519182529084907f0e54eff26401bf69b81b26f60bd85ef47f5d85275c1d268d84f68d6897431c47906020015b60405180910390a3505050565b5f818152600e6020908152604080832033845290915290205480611b255760405162461bcd60e51b81526020600482015260136024820152724e6f20726566756e6420617661696c61626c6560681b604482015260640161095f565b5f828152600e6020908152604080832033808552925280832083905551909183156108fc02918491818181858888f19350505050158015610e77573d5f803e3d5ffd5b5f818152600c6020526040902054819060ff16611b975760405162461bcd60e51b815260040161095f90613144565b8133611ba282610e7c565b6001600160a01b031614611bc85760405162461bcd60e51b815260040161095f90613172565b50505f908152600b60205260409020600601805460ff60a01b198116600160a01b9182900460ff1615909102179055565b610936338383612508565b611c0f84848461093a565b6109c233858585856125c7565b6008546060905f60015b828111611c86575f818152600c602052604090205460ff168015611c6157505f818152600b6020526040902060060154600160a01b900460ff165b15611c745781611c7081613227565b9250505b80611c7e81613227565b915050611c26565b505f8167ffffffffffffffff811115611ca157611ca1612caa565b604051908082528060200260200182016040528015611d2057816020015b611d0d6040518061010001604052805f815260200160608152602001606081526020015f81526020015f8152602001606081526020015f6001600160a01b031681526020015f151581525090565b815260200190600190039081611cbf5790505b5090505f60015b848111611fb8575f818152600c602052604090205460ff168015611d6257505f818152600b6020526040902060060154600160a01b900460ff165b15611fa657600b5f8281526020019081526020015f20604051806101000160405290815f8201548152602001600182018054611d9d9061310c565b80601f0160208091040260200160405190810160405280929190818152602001828054611dc99061310c565b8015611e145780601f10611deb57610100808354040283529160200191611e14565b820191905f5260205f20905b815481529060010190602001808311611df757829003601f168201915b50505050508152602001600282018054611e2d9061310c565b80601f0160208091040260200160405190810160405280929190818152602001828054611e599061310c565b8015611ea45780601f10611e7b57610100808354040283529160200191611ea4565b820191905f5260205f20905b815481529060010190602001808311611e8757829003601f168201915b505050505081526020016003820154815260200160048201548152602001600582018054611ed19061310c565b80601f0160208091040260200160405190810160405280929190818152602001828054611efd9061310c565b8015611f485780601f10611f1f57610100808354040283529160200191611f48565b820191905f5260205f20905b815481529060010190602001808311611f2b57829003601f168201915b5050509183525050600691909101546001600160a01b0381166020830152600160a01b900460ff1615156040909101528351849084908110611f8c57611f8c61337f565b60200260200101819052508180611fa290613227565b9250505b80611fb081613227565b915050611d27565b5090949350505050565b6060611fcd8261223e565b505f611fe360408051602081019091525f815290565b90505f611fef846126ef565b905081515f03612000579392505050565b80511561203257818160405160200161201a9291906133aa565b60405160208183030381529060405292505050919050565b61203b8461278e565b949350505050565b6008546060905f60015b8281116120af575f818152600c602052604090205460ff16801561208a5750846001600160a01b031661207f82610e7c565b6001600160a01b0316145b1561209d578161209981613227565b9250505b806120a781613227565b91505061204d565b505f8167ffffffffffffffff8111156120ca576120ca612caa565b6040519080825280602002602001820160405280156120f3578160200160208202803683370190505b5090505f60015b84811161217a575f818152600c602052604090205460ff1680156121375750866001600160a01b031661212c82610e7c565b6001600160a01b0316145b15612168578083838151811061214f5761214f61337f565b60209081029190910101528161216481613227565b9250505b8061217281613227565b9150506120fa565b509095945050505050565b6001600160a01b039182165f90815260056020908152604080832093909416825291909152205460ff1690565b6121ba61248a565b6001600160a01b0381166121e357604051631e4fbdf760e01b81525f600482015260240161095f565b6121ec816124b7565b50565b5f6001600160e01b031982166380ac58cd60e01b148061221f57506001600160e01b03198216635b5e139f60e01b145b8061086f57506301ffc9a760e01b6001600160e01b031983161461086f565b5f818152600260205260408120546001600160a01b03168061086f57604051637e27328960e01b81526004810184905260240161095f565b610e7783838360016127ff565b5f828152600260205260408120546001600160a01b03908116908316156122af576122af818486612903565b6001600160a01b038116156122e9576122ca5f855f806127ff565b6001600160a01b0381165f90815260036020526040902080545f190190555b6001600160a01b03851615612317576001600160a01b0385165f908152600360205260409020805460010190555b5f8481526002602052604080822080546001600160a01b0319166001600160a01b0389811691821790925591518793918516917fddf252ad1be2c89b69c2b068fc378daa952ba7f163c4a11628f55a4df523b3ef91a4949350505050565b6001600160a01b03821661239e57604051633250574960e11b81525f600482015260240161095f565b5f6123aa83835f612283565b90506001600160a01b0381166123d657604051637e27328960e01b81526004810183905260240161095f565b836001600160a01b0316816001600160a01b0316146109c2576040516364283d7b60e01b81526001600160a01b038086166004830152602482018490528216604482015260640161095f565b610936828260405180602001604052805f815250612967565b5f8281526006602052604090206124528282613283565b506040518281527ff8e1a15aba9398e019f0b49df1a4fde98ee17ae345cb5f6b5e2c27f5033e8ce79060200160405180910390a15050565b6007546001600160a01b03163314610edc5760405163118cdaa760e01b815233600482015260240161095f565b600780546001600160a01b038381166001600160a01b0319831681179093556040519116919082907f8be0079c531659141344cd1fd0a4f28419497f9722a3daafe3b4186f6b6457e0905f90a35050565b6001600160a01b0383166125315760405163a9fbf51f60e01b81525f600482015260240161095f565b6001600160a01b03821661256357604051630b61174360e31b81526001600160a01b038316600482015260240161095f565b6001600160a01b038381165f81815260056020908152604080832094871680845294825291829020805460ff191686151590811790915591519182527f17307eab39ab6107e8899845ad3d59bd9653f200f220920489ca2b5937696c319101611abc565b6001600160a01b0383163b156126e857604051630a85bd0160e11b81526001600160a01b0384169063150b7a02906126099088908890879087906004016133be565b6020604051808303815f875af1925050508015612643575060408051601f3d908101601f19168201909252612640918101906133fa565b60015b6126aa573d808015612670576040519150601f19603f3d011682016040523d82523d5f602084013e612675565b606091505b5080515f036126a257604051633250574960e11b81526001600160a01b038516600482015260240161095f565b805160208201fd5b6001600160e01b03198116630a85bd0160e11b146126e657604051633250574960e11b81526001600160a01b038516600482015260240161095f565b505b5050505050565b5f81815260066020526040902080546060919061270b9061310c565b80601f01602080910402602001604051908101604052809291908181526020018280546127379061310c565b80156127825780601f1061275957610100808354040283529160200191612782565b820191905f5260205f20905b81548152906001019060200180831161276557829003601f168201915b50505050509050919050565b60606127998261223e565b505f6127af60408051602081019091525f815290565b90505f8151116127cd5760405180602001604052805f8152506127f8565b806127d78461297e565b6040516020016127e89291906133aa565b6040516020818303038152906040525b9392505050565b808061281357506001600160a01b03821615155b156128d4575f6128228461223e565b90506001600160a01b0383161580159061284e5750826001600160a01b0316816001600160a01b031614155b8015612861575061285f8184612185565b155b1561288a5760405163a9fbf51f60e01b81526001600160a01b038416600482015260240161095f565b81156128d25783856001600160a01b0316826001600160a01b03167f8c5be1e5ebec7d5bd14f71427d1e84f3dd0314c0f7b2291e5b200ac8c7c3b92560405160405180910390a45b505b50505f90815260046020526040902080546001600160a01b0319166001600160a01b0392909216919091179055565b61290e838383612a0e565b610e77576001600160a01b03831661293c57604051637e27328960e01b81526004810182905260240161095f565b60405163177e802f60e01b81526001600160a01b03831660048201526024810182905260440161095f565b6129718383612a6f565b610e77335f8585856125c7565b60605f61298a83612ad0565b60010190505f8167ffffffffffffffff8111156129a9576129a9612caa565b6040519080825280601f01601f1916602001820160405280156129d3576020820181803683370190505b5090508181016020015b5f19016f181899199a1a9b1b9c1cb0b131b232b360811b600a86061a8153600a85049450846129dd57509392505050565b5f6001600160a01b0383161580159061203b5750826001600160a01b0316846001600160a01b03161480612a475750612a478484612185565b8061203b5750505f908152600460205260409020546001600160a01b03908116911614919050565b6001600160a01b038216612a9857604051633250574960e11b81525f600482015260240161095f565b5f612aa483835f612283565b90506001600160a01b03811615610e77576040516339e3563760e11b81525f600482015260240161095f565b5f8072184f03e93ff9f4daa797ed6e38ed64bf6a1f0160401b8310612b0e5772184f03e93ff9f4daa797ed6e38ed64bf6a1f0160401b830492506040015b6d04ee2d6d415b85acef81000000008310612b3a576d04ee2d6d415b85acef8100000000830492506020015b662386f26fc100008310612b5857662386f26fc10000830492506010015b6305f5e1008310612b70576305f5e100830492506008015b6127108310612b8457612710830492506004015b60648310612b96576064830492506002015b600a831061086f5760010192915050565b5f60208284031215612bb7575f80fd5b5035919050565b6001600160e01b0319811681146121ec575f80fd5b5f60208284031215612be3575f80fd5b81356127f881612bbe565b5f81518084528060208401602086015e5f602082860101526020601f19601f83011685010191505092915050565b602081525f6127f86020830184612bee565b80356001600160a01b0381168114612c44575f80fd5b919050565b5f8060408385031215612c5a575f80fd5b612c6383612c2e565b946020939093013593505050565b5f805f60608486031215612c83575f80fd5b612c8c84612c2e565b9250612c9a60208501612c2e565b9150604084013590509250925092565b634e487b7160e01b5f52604160045260245ffd5b5f67ffffffffffffffff80841115612cd857612cd8612caa565b604051601f8501601f19908116603f01168101908282118183101715612d0057612d00612caa565b81604052809350858152868686011115612d18575f80fd5b858560208301375f602087830101525050509392505050565b5f82601f830112612d40575f80fd5b6127f883833560208501612cbe565b5f805f805f8060c08789031215612d64575f80fd5b863567ffffffffffffffff80821115612d7b575f80fd5b612d878a838b01612d31565b97506020890135915080821115612d9c575f80fd5b612da88a838b01612d31565b965060408901359550606089013594506080890135915080821115612dcb575f80fd5b612dd78a838b01612d31565b935060a0890135915080821115612dec575f80fd5b50612df989828a01612d31565b9150509295509295509295565b5f60208284031215612e16575f80fd5b6127f882612c2e565b5f8060408385031215612e30575f80fd5b50508035926020909101359150565b5f8060408385031215612e50575f80fd5b82359150612e6060208401612c2e565b90509250929050565b5f6101008a8352806020840152612e828184018b612bee565b90508281036040840152612e96818a612bee565b905087606084015286608084015282810360a0840152612eb68187612bee565b6001600160a01b039590951660c0840152505090151560e0909101529695505050505050565b5f805f60608486031215612eee575f80fd5b505081359360208301359350604090920135919050565b5f8060408385031215612f16575f80fd5b612f1f83612c2e565b915060208301358015158114612f33575f80fd5b809150509250929050565b5f805f8060808587031215612f51575f80fd5b612f5a85612c2e565b9350612f6860208601612c2e565b925060408501359150606085013567ffffffffffffffff811115612f8a575f80fd5b8501601f81018713612f9a575f80fd5b612fa987823560208401612cbe565b91505092959194509250565b5f60208083018184528085518083526040925060408601915060408160051b8701018488015f5b8381101561309357603f1989840301855281516101008151855288820151818a87015261300b82870182612bee565b91505087820151858203898701526130238282612bee565b9150506060808301518187015250608080830151818701525060a080830151868303828801526130538382612bee565b9250505060c080830151613071828801826001600160a01b03169052565b505060e091820151151594909101939093529386019390860190600101612fdc565b509098975050505050505050565b602080825282518282018190525f9190848201906040850190845b818110156130d8578351835292840192918401916001016130bc565b50909695505050505050565b5f80604083850312156130f5575f80fd5b6130fe83612c2e565b9150612e6060208401612c2e565b600181811c9082168061312057607f821691505b60208210810361313e57634e487b7160e01b5f52602260045260245ffd5b50919050565b602080825260149082015273121bdc9cd948191bd95cc81b9bdd08195e1a5cdd60621b604082015260600190565b6020808252601390820152722737ba103a3432903437b939b29037bbb732b960691b604082015260600190565b60208082526011908201527027379030b1ba34bb329030bab1ba34b7b760791b604082015260600190565b634e487b7160e01b5f52601160045260245ffd5b808202811582820484141761086f5761086f6131ca565b5f8261320f57634e487b7160e01b5f52601260045260245ffd5b500490565b8181038181111561086f5761086f6131ca565b5f60018201613238576132386131ca565b5060010190565b601f821115610e7757805f5260205f20601f840160051c810160208510156132645750805b601f840160051c820191505b818110156126e8575f8155600101613270565b815167ffffffffffffffff81111561329d5761329d612caa565b6132b1816132ab845461310c565b8461323f565b602080601f8311600181146132e4575f84156132cd5750858301515b5f19600386901b1c1916600185901b1785556126e6565b5f85815260208120601f198616915b82811015613312578886015182559484019460019091019084016132f3565b508582101561332f57878501515f19600388901b60f8161c191681555b5050505050600190811b01905550565b604081525f6133516040830185612bee565b82810360208401526133638185612bee565b95945050505050565b8082018082111561086f5761086f6131ca565b634e487b7160e01b5f52603260045260245ffd5b5f81518060208401855e5f93019283525090919050565b5f61203b6133b88386613393565b84613393565b6001600160a01b03858116825284166020820152604081018390526080606082018190525f906133f090830184612bee565b9695505050505050565b5f6020828403121561340a575f80fd5b81516127f881612bbe56fea26469706673582212200f91eaa6b5929262af4af8782154a07431bfaf0ff47cbc3f2f2cc8d3c6f92f9164736f6c63430008190033",
  "linkReferences": {},
  "deployedLinkReferences": {}
}