{
  "_format": "hh-sol-artifact-1",
  "contractName": "HorseMarketplace",
  "sourceName": "contracts/HorseMarketplace.sol",
  "abi": [
    {
      "inputs": [],
      "stateMutability": "nonpayable",
      "type": "constructor"
    },
    {
      "anonymous": false,
      "inputs": [
        {
          "indexed": true,
          "internalType": "uint256",
          "name": "id",
          "type": "uint256"
        },
        {
          "indexed": false,
          "internalType": "string",
          "name": "name",
          "type": "string"
        },
        {
          "indexed": true,
          "internalType": "address",
          "name": "owner",
          "type": "address"
        },
        {
          "indexed": false,
          "internalType": "uint256",
          "name": "price",
          "type": "uint256"
        }
      ],
      "name": "HorseListed",
      "type": "event"
    },
    {
      "anonymous": false,
      "inputs": [
        {
          "indexed": true,
          "internalType": "uint256",
          "name": "id",
          "type": "uint256"
        },
        {
          "indexed": false,
          "internalType": "uint256",
          "name": "oldPrice",
          "type": "uint256"
        },
        {
          "indexed": false,
          "internalType": "uint256",
          "name": "newPrice",
          "type": "uint256"
        }
      ],
      "name": "HorsePriceUpdated",
      "type": "event"
    },
    {
      "anonymous": false,
      "inputs": [
        {
          "indexed": true,
          "internalType": "uint256",
          "name": "id",
          "type": "uint256"
        },
        {
          "indexed": true,
          "internalType": "address",
          "name": "owner",
          "type": "address"
        }
      ],
      "name": "HorseRemovedFromSale",
      "type": "event"
    },
    {
      "anonymous": false,
      "inputs": [
        {
          "indexed": true,
          "internalType": "uint256",
          "name": "id",
          "type": "uint256"
        },
        {
          "indexed": true,
          "internalType": "address",
          "name": "previousOwner",
          "type": "address"
        },
        {
          "indexed": true,
          "internalType": "address",
          "name": "newOwner",
          "type": "address"
        },
        {
          "indexed": false,
          "internalType": "uint256",
          "name": "price",
          "type": "uint256"
        }
      ],
      "name": "HorseSold",
      "type": "event"
    },
    {
      "inputs": [
        {
          "internalType": "uint256",
          "name": "_id",
          "type": "uint256"
        }
      ],
      "name": "buyHorse",
      "outputs": [],
      "stateMutability": "payable",
      "type": "function"
    },
    {
      "inputs": [],
      "name": "contractOwner",
      "outputs": [
        {
          "internalType": "address",
          "name": "",
          "type": "address"
        }
      ],
      "stateMutability": "view",
      "type": "function"
    },
    {
      "inputs": [],
      "name": "getContractBalance",
      "outputs": [
        {
          "internalType": "uint256",
          "name": "",
          "type": "uint256"
        }
      ],
      "stateMutability": "view",
      "type": "function"
    },
    {
      "inputs": [
        {
          "internalType": "address",
          "name": "_owner",
          "type": "address"
        }
      ],
      "name": "getHorsesByOwner",
      "outputs": [
        {
          "internalType": "uint256[]",
          "name": "",
          "type": "uint256[]"
        }
      ],
      "stateMutability": "view",
      "type": "function"
    },
    {
      "inputs": [],
      "name": "getHorsesForSale",
      "outputs": [
        {
          "components": [
            {
              "internalType": "uint256",
              "name": "id",
              "type": "uint256"
            },
            {
              "internalType": "string",
              "name": "name",
              "type": "string"
            },
            {
              "internalType": "string",
              "name": "breed",
              "type": "string"
            },
            {
              "internalType": "uint256",
              "name": "age",
              "type": "uint256"
            },
            {
              "internalType": "uint256",
              "name": "price",
              "type": "uint256"
            },
            {
              "internalType": "string",
              "name": "ipfsHash",
              "type": "string"
            },
            {
              "internalType": "address payable",
              "name": "owner",
              "type": "address"
            },
            {
              "internalType": "bool",
              "name": "isForSale",
              "type": "bool"
            }
          ],
          "internalType": "struct HorseMarketplace.Horse[]",
          "name": "",
          "type": "tuple[]"
        }
      ],
      "stateMutability": "view",
      "type": "function"
    },
    {
      "inputs": [],
      "name": "getTotalHorses",
      "outputs": [
        {
          "internalType": "uint256",
          "name": "",
          "type": "uint256"
        }
      ],
      "stateMutability": "view",
      "type": "function"
    },
    {
      "inputs": [
        {
          "internalType": "uint256",
          "name": "",
          "type": "uint256"
        }
      ],
      "name": "horses",
      "outputs": [
        {
          "internalType": "uint256",
          "name": "id",
          "type": "uint256"
        },
        {
          "internalType": "string",
          "name": "name",
          "type": "string"
        },
        {
          "internalType": "string",
          "name": "breed",
          "type": "string"
        },
        {
          "internalType": "uint256",
          "name": "age",
          "type": "uint256"
        },
        {
          "internalType": "uint256",
          "name": "price",
          "type": "uint256"
        },
        {
          "internalType": "string",
          "name": "ipfsHash",
          "type": "string"
        },
        {
          "internalType": "address payable",
          "name": "owner",
          "type": "address"
        },
        {
          "internalType": "bool",
          "name": "isForSale",
          "type": "bool"
        }
      ],
      "stateMutability": "view",
      "type": "function"
    },
    {
      "inputs": [
        {
          "internalType": "string",
          "name": "_name",
          "type": "string"
        },
        {
          "internalType": "string",
          "name": "_breed",
          "type": "string"
        },
        {
          "internalType": "uint256",
          "name": "_age",
          "type": "uint256"
        },
        {
          "internalType": "uint256",
          "name": "_price",
          "type": "uint256"
        },
        {
          "internalType": "string",
          "name": "_ipfsHash",
          "type": "string"
        }
      ],
      "name": "listHorse",
      "outputs": [
        {
          "internalType": "uint256",
          "name": "",
          "type": "uint256"
        }
      ],
      "stateMutability": "nonpayable",
      "type": "function"
    },
    {
      "inputs": [
        {
          "internalType": "address",
          "name": "",
          "type": "address"
        },
        {
          "internalType": "uint256",
          "name": "",
          "type": "uint256"
        }
      ],
      "name": "ownerHorses",
      "outputs": [
        {
          "internalType": "uint256",
          "name": "",
          "type": "uint256"
        }
      ],
      "stateMutability": "view",
      "type": "function"
    },
    {
      "inputs": [],
      "name": "platformFee",
      "outputs": [
        {
          "internalType": "uint256",
          "name": "",
          "type": "uint256"
        }
      ],
      "stateMutability": "view",
      "type": "function"
    },
    {
      "inputs": [
        {
          "internalType": "uint256",
          "name": "_id",
          "type": "uint256"
        }
      ],
      "name": "toggleSaleStatus",
      "outputs": [],
      "stateMutability": "nonpayable",
      "type": "function"
    },
    {
      "inputs": [
        {
          "internalType": "uint256",
          "name": "_id",
          "type": "uint256"
        },
        {
          "internalType": "uint256",
          "name": "_newPrice",
          "type": "uint256"
        }
      ],
      "name": "updatePrice",
      "outputs": [],
      "stateMutability": "nonpayable",
      "type": "function"
    }
  ],
  "bytecode": "0x6080604052601960015534801561001557600080fd5b5033600260006101000a81548173ffffffffffffffffffffffffffffffffffffffff021916908373ffffffffffffffffffffffffffffffffffffffff1602179055506125df806100666000396000f3fe6080604052600436106100a75760003560e01c8063b9fef9f911610064578063b9fef9f9146101b4578063c30a4b66146101df578063c67940b21461021c578063c8b62d6414610247578063ce606ee014610284578063e6bf6ddc146102af576100a7565b806326232a2e146100ac5780636f9fb98a146100d7578063790be9e81461010257806382367b2d1461011e5780638f8b5cde14610147578063a078c1a01461018b575b600080fd5b3480156100b857600080fd5b506100c16102ec565b6040516100ce9190611520565b60405180910390f35b3480156100e357600080fd5b506100ec6102f2565b6040516100f99190611520565b60405180910390f35b61011c6004803603810190610117919061157b565b61038a565b005b34801561012a57600080fd5b50610145600480360381019061014091906115a8565b6107be565b005b34801561015357600080fd5b5061016e6004803603810190610169919061157b565b61096f565b6040516101829897969594939291906116d4565b60405180910390f35b34801561019757600080fd5b506101b260048036038101906101ad919061157b565b610b7c565b005b3480156101c057600080fd5b506101c9610d37565b6040516101d69190611520565b60405180910390f35b3480156101eb57600080fd5b506102066004803603810190610201919061189c565b610d40565b6040516102139190611520565b60405180910390f35b34801561022857600080fd5b5061023161101d565b60405161023e9190611b62565b60405180910390f35b34801561025357600080fd5b5061026e60048036038101906102699190611bc2565b6113bc565b60405161027b9190611c9e565b60405180910390f35b34801561029057600080fd5b50610299611453565b6040516102a69190611ccf565b60405180910390f35b3480156102bb57600080fd5b506102d660048036038101906102d19190611cea565b611479565b6040516102e39190611520565b60405180910390f35b60015481565b6000600260009054906101000a900473ffffffffffffffffffffffffffffffffffffffff1673ffffffffffffffffffffffffffffffffffffffff163373ffffffffffffffffffffffffffffffffffffffff1614610384576040517f08c379a000000000000000000000000000000000000000000000000000000000815260040161037b90611d76565b60405180910390fd5b47905090565b8060008111801561039d57506000548111155b6103dc576040517f08c379a00000000000000000000000000000000000000000000000000000000081526004016103d390611de2565b60405180910390fd5b60006003600084815260200190815260200160002090508060060160149054906101000a900460ff16610444576040517f08c379a000000000000000000000000000000000000000000000000000000000815260040161043b90611e4e565b60405180910390fd5b8060060160009054906101000a900473ffffffffffffffffffffffffffffffffffffffff1673ffffffffffffffffffffffffffffffffffffffff163373ffffffffffffffffffffffffffffffffffffffff16036104d6576040517f08c379a00000000000000000000000000000000000000000000000000000000081526004016104cd90611eba565b60405180910390fd5b806004015434101561051d576040517f08c379a000000000000000000000000000000000000000000000000000000000815260040161051490611f26565b60405180910390fd5b60008160060160009054906101000a900473ffffffffffffffffffffffffffffffffffffffff16905060008260040154905060006103e8600154836105629190611f75565b61056c9190611fe6565b90506000818361057c9190612017565b9050338560060160006101000a81548173ffffffffffffffffffffffffffffffffffffffff021916908373ffffffffffffffffffffffffffffffffffffffff16021790555060008560060160146101000a81548160ff021916908315150217905550600460003373ffffffffffffffffffffffffffffffffffffffff1673ffffffffffffffffffffffffffffffffffffffff1681526020019081526020016000208790806001815401808255809150506001900390600052602060002001600090919091909150558373ffffffffffffffffffffffffffffffffffffffff166108fc829081150290604051600060405180830381858888f1935050505015801561068a573d6000803e3d6000fd5b50600260009054906101000a900473ffffffffffffffffffffffffffffffffffffffff1673ffffffffffffffffffffffffffffffffffffffff166108fc839081150290604051600060405180830381858888f193505050501580156106f3573d6000803e3d6000fd5b508234111561074f573373ffffffffffffffffffffffffffffffffffffffff166108fc84346107229190612017565b9081150290604051600060405180830381858888f1935050505015801561074d573d6000803e3d6000fd5b505b3373ffffffffffffffffffffffffffffffffffffffff168473ffffffffffffffffffffffffffffffffffffffff16887f1e90c335ffd8b8c726f7fac7f55490aaad9e25b81a9961c46da3691ceda6e96d866040516107ad9190611520565b60405180910390a450505050505050565b816000811180156107d157506000548111155b610810576040517f08c379a000000000000000000000000000000000000000000000000000000000815260040161080790611de2565b60405180910390fd5b823373ffffffffffffffffffffffffffffffffffffffff166003600083815260200190815260200160002060060160009054906101000a900473ffffffffffffffffffffffffffffffffffffffff1673ffffffffffffffffffffffffffffffffffffffff16146108b5576040517f08c379a00000000000000000000000000000000000000000000000000000000081526004016108ac90612097565b60405180910390fd5b600083116108f8576040517f08c379a00000000000000000000000000000000000000000000000000000000081526004016108ef90612103565b60405180910390fd5b600060036000868152602001908152602001600020600401549050836003600087815260200190815260200160002060040181905550847ff92762e44f0ad660c475823e353aebf878406219bd6ff37d183df7bf5d6e82018286604051610960929190612123565b60405180910390a25050505050565b60036020528060005260406000206000915090508060000154908060010180546109989061217b565b80601f01602080910402602001604051908101604052809291908181526020018280546109c49061217b565b8015610a115780601f106109e657610100808354040283529160200191610a11565b820191906000526020600020905b8154815290600101906020018083116109f457829003601f168201915b505050505090806002018054610a269061217b565b80601f0160208091040260200160405190810160405280929190818152602001828054610a529061217b565b8015610a9f5780601f10610a7457610100808354040283529160200191610a9f565b820191906000526020600020905b815481529060010190602001808311610a8257829003601f168201915b505050505090806003015490806004015490806005018054610ac09061217b565b80601f0160208091040260200160405190810160405280929190818152602001828054610aec9061217b565b8015610b395780601f10610b0e57610100808354040283529160200191610b39565b820191906000526020600020905b815481529060010190602001808311610b1c57829003601f168201915b5050505050908060060160009054906101000a900473ffffffffffffffffffffffffffffffffffffffff16908060060160149054906101000a900460ff16905088565b80600081118015610b8f57506000548111155b610bce576040517f08c379a0000000000000000000000000000000000000000000000000000000008152600401610bc590611de2565b60405180910390fd5b813373ffffffffffffffffffffffffffffffffffffffff166003600083815260200190815260200160002060060160009054906101000a900473ffffffffffffffffffffffffffffffffffffffff1673ffffffffffffffffffffffffffffffffffffffff1614610c73576040517f08c379a0000000000000000000000000000000000000000000000000000000008152600401610c6a90612097565b60405180910390fd5b6003600084815260200190815260200160002060060160149054906101000a900460ff16156003600085815260200190815260200160002060060160146101000a81548160ff0219169083151502179055506003600084815260200190815260200160002060060160149054906101000a900460ff16610d32573373ffffffffffffffffffffffffffffffffffffffff16837f99d3d01f1d56571702050dd2e0b2497d7bf73143905fea9fc7b7516a3b20810e60405160405180910390a35b505050565b60008054905090565b600080865111610d85576040517f08c379a0000000000000000000000000000000000000000000000000000000008152600401610d7c906121f8565b60405180910390fd5b60008311610dc8576040517f08c379a0000000000000000000000000000000000000000000000000000000008152600401610dbf90612103565b60405180910390fd5b6000825111610e0c576040517f08c379a0000000000000000000000000000000000000000000000000000000008152600401610e0390612264565b60405180910390fd5b600080815480929190610e1e90612284565b91905055506000805490506040518061010001604052808281526020018881526020018781526020018681526020018581526020018481526020013373ffffffffffffffffffffffffffffffffffffffff1681526020016001151581525060036000838152602001908152602001600020600082015181600001556020820151816001019081610eae9190612478565b506040820151816002019081610ec49190612478565b50606082015181600301556080820151816004015560a0820151816005019081610eee9190612478565b5060c08201518160060160006101000a81548173ffffffffffffffffffffffffffffffffffffffff021916908373ffffffffffffffffffffffffffffffffffffffff16021790555060e08201518160060160146101000a81548160ff021916908315150217905550905050600460003373ffffffffffffffffffffffffffffffffffffffff1673ffffffffffffffffffffffffffffffffffffffff1681526020019081526020016000208190806001815401808255809150506001900390600052602060002001600090919091909150553373ffffffffffffffffffffffffffffffffffffffff16817f0688346291e08380a3ebe5e2ffd42fd9efda0f9bebf623b2aad9f8cc25848b98898760405161100892919061254a565b60405180910390a38091505095945050505050565b6060600080600190505b600054811161107b576003600082815260200190815260200160002060060160149054906101000a900460ff161561106857818061106490612284565b9250505b808061107390612284565b915050611027565b5060008167ffffffffffffffff81111561109857611097611771565b5b6040519080825280602002602001820160405280156110d157816020015b6110be6114aa565b8152602001906001900390816110b65790505b509050600080600190505b60005481116113b2576003600082815260200190815260200160002060060160149054906101000a900460ff161561139f576003600082815260200190815260200160002060405180610100016040529081600082015481526020016001820180546111479061217b565b80601f01602080910402602001604051908101604052809291908181526020018280546111739061217b565b80156111c05780601f10611195576101008083540402835291602001916111c0565b820191906000526020600020905b8154815290600101906020018083116111a357829003601f168201915b505050505081526020016002820180546111d99061217b565b80601f01602080910402602001604051908101604052809291908181526020018280546112059061217b565b80156112525780601f1061122757610100808354040283529160200191611252565b820191906000526020600020905b81548152906001019060200180831161123557829003601f168201915b50505050508152602001600382015481526020016004820154815260200160058201805461127f9061217b565b80601f01602080910402602001604051908101604052809291908181526020018280546112ab9061217b565b80156112f85780601f106112cd576101008083540402835291602001916112f8565b820191906000526020600020905b8154815290600101906020018083116112db57829003601f168201915b505050505081526020016006820160009054906101000a900473ffffffffffffffffffffffffffffffffffffffff1673ffffffffffffffffffffffffffffffffffffffff1673ffffffffffffffffffffffffffffffffffffffff1681526020016006820160149054906101000a900460ff1615151515815250508383815181106113855761138461257a565b5b6020026020010181905250818061139b90612284565b9250505b80806113aa90612284565b9150506110dc565b5081935050505090565b6060600460008373ffffffffffffffffffffffffffffffffffffffff1673ffffffffffffffffffffffffffffffffffffffff16815260200190815260200160002080548060200260200160405190810160405280929190818152602001828054801561144757602002820191906000526020600020905b815481526020019060010190808311611433575b50505050509050919050565b600260009054906101000a900473ffffffffffffffffffffffffffffffffffffffff1681565b6004602052816000526040600020818154811061149557600080fd5b90600052602060002001600091509150505481565b604051806101000160405280600081526020016060815260200160608152602001600081526020016000815260200160608152602001600073ffffffffffffffffffffffffffffffffffffffff1681526020016000151581525090565b6000819050919050565b61151a81611507565b82525050565b60006020820190506115356000830184611511565b92915050565b6000604051905090565b600080fd5b600080fd5b61155881611507565b811461156357600080fd5b50565b6000813590506115758161154f565b92915050565b60006020828403121561159157611590611545565b5b600061159f84828501611566565b91505092915050565b600080604083850312156115bf576115be611545565b5b60006115cd85828601611566565b92505060206115de85828601611566565b9150509250929050565b600081519050919050565b600082825260208201905092915050565b60005b83811015611622578082015181840152602081019050611607565b60008484015250505050565b6000601f19601f8301169050919050565b600061164a826115e8565b61165481856115f3565b9350611664818560208601611604565b61166d8161162e565b840191505092915050565b600073ffffffffffffffffffffffffffffffffffffffff82169050919050565b60006116a382611678565b9050919050565b6116b381611698565b82525050565b60008115159050919050565b6116ce816116b9565b82525050565b6000610100820190506116ea600083018b611511565b81810360208301526116fc818a61163f565b90508181036040830152611710818961163f565b905061171f6060830188611511565b61172c6080830187611511565b81810360a083015261173e818661163f565b905061174d60c08301856116aa565b61175a60e08301846116c5565b9998505050505050505050565b600080fd5b600080fd5b7f4e487b7100000000000000000000000000000000000000000000000000000000600052604160045260246000fd5b6117a98261162e565b810181811067ffffffffffffffff821117156117c8576117c7611771565b5b80604052505050565b60006117db61153b565b90506117e782826117a0565b919050565b600067ffffffffffffffff82111561180757611806611771565b5b6118108261162e565b9050602081019050919050565b82818337600083830152505050565b600061183f61183a846117ec565b6117d1565b90508281526020810184848401111561185b5761185a61176c565b5b61186684828561181d565b509392505050565b600082601f83011261188357611882611767565b5b813561189384826020860161182c565b91505092915050565b600080600080600060a086880312156118b8576118b7611545565b5b600086013567ffffffffffffffff8111156118d6576118d561154a565b5b6118e28882890161186e565b955050602086013567ffffffffffffffff8111156119035761190261154a565b5b61190f8882890161186e565b945050604061192088828901611566565b935050606061193188828901611566565b925050608086013567ffffffffffffffff8111156119525761195161154a565b5b61195e8882890161186e565b9150509295509295909350565b600081519050919050565b600082825260208201905092915050565b6000819050602082019050919050565b6119a081611507565b82525050565b600082825260208201905092915050565b60006119c2826115e8565b6119cc81856119a6565b93506119dc818560208601611604565b6119e58161162e565b840191505092915050565b6119f981611698565b82525050565b611a08816116b9565b82525050565b600061010083016000830151611a276000860182611997565b5060208301518482036020860152611a3f82826119b7565b91505060408301518482036040860152611a5982826119b7565b9150506060830151611a6e6060860182611997565b506080830151611a816080860182611997565b5060a083015184820360a0860152611a9982826119b7565b91505060c0830151611aae60c08601826119f0565b5060e0830151611ac160e08601826119ff565b508091505092915050565b6000611ad88383611a0e565b905092915050565b6000602082019050919050565b6000611af88261196b565b611b028185611976565b935083602082028501611b1485611987565b8060005b85811015611b505784840389528151611b318582611acc565b9450611b3c83611ae0565b925060208a01995050600181019050611b18565b50829750879550505050505092915050565b60006020820190508181036000830152611b7c8184611aed565b905092915050565b6000611b8f82611678565b9050919050565b611b9f81611b84565b8114611baa57600080fd5b50565b600081359050611bbc81611b96565b92915050565b600060208284031215611bd857611bd7611545565b5b6000611be684828501611bad565b91505092915050565b600081519050919050565b600082825260208201905092915050565b6000819050602082019050919050565b6000611c278383611997565b60208301905092915050565b6000602082019050919050565b6000611c4b82611bef565b611c558185611bfa565b9350611c6083611c0b565b8060005b83811015611c91578151611c788882611c1b565b9750611c8383611c33565b925050600181019050611c64565b5085935050505092915050565b60006020820190508181036000830152611cb88184611c40565b905092915050565b611cc981611b84565b82525050565b6000602082019050611ce46000830184611cc0565b92915050565b60008060408385031215611d0157611d00611545565b5b6000611d0f85828601611bad565b9250506020611d2085828601611566565b9150509250929050565b7f4e6f7420636f6e7472616374206f776e65720000000000000000000000000000600082015250565b6000611d606012836115f3565b9150611d6b82611d2a565b602082019050919050565b60006020820190508181036000830152611d8f81611d53565b9050919050565b7f486f72736520646f6573206e6f74206578697374000000000000000000000000600082015250565b6000611dcc6014836115f3565b9150611dd782611d96565b602082019050919050565b60006020820190508181036000830152611dfb81611dbf565b9050919050565b7f486f727365206973206e6f7420666f722073616c650000000000000000000000600082015250565b6000611e386015836115f3565b9150611e4382611e02565b602082019050919050565b60006020820190508181036000830152611e6781611e2b565b9050919050565b7f596f7520616c7265616479206f776e207468697320686f727365000000000000600082015250565b6000611ea4601a836115f3565b9150611eaf82611e6e565b602082019050919050565b60006020820190508181036000830152611ed381611e97565b9050919050565b7f496e73756666696369656e74207061796d656e74000000000000000000000000600082015250565b6000611f106014836115f3565b9150611f1b82611eda565b602082019050919050565b60006020820190508181036000830152611f3f81611f03565b9050919050565b7f4e487b7100000000000000000000000000000000000000000000000000000000600052601160045260246000fd5b6000611f8082611507565b9150611f8b83611507565b9250828202611f9981611507565b91508282048414831517611fb057611faf611f46565b5b5092915050565b7f4e487b7100000000000000000000000000000000000000000000000000000000600052601260045260246000fd5b6000611ff182611507565b9150611ffc83611507565b92508261200c5761200b611fb7565b5b828204905092915050565b600061202282611507565b915061202d83611507565b925082820390508181111561204557612044611f46565b5b92915050565b7f4e6f742074686520686f727365206f776e657200000000000000000000000000600082015250565b60006120816013836115f3565b915061208c8261204b565b602082019050919050565b600060208201905081810360008301526120b081612074565b9050919050565b7f5072696365206d7573742062652067726561746572207468616e203000000000600082015250565b60006120ed601c836115f3565b91506120f8826120b7565b602082019050919050565b6000602082019050818103600083015261211c816120e0565b9050919050565b60006040820190506121386000830185611511565b6121456020830184611511565b9392505050565b7f4e487b7100000000000000000000000000000000000000000000000000000000600052602260045260246000fd5b6000600282049050600182168061219357607f821691505b6020821081036121a6576121a561214c565b5b50919050565b7f4e616d652063616e6e6f7420626520656d707479000000000000000000000000600082015250565b60006121e26014836115f3565b91506121ed826121ac565b602082019050919050565b60006020820190508181036000830152612211816121d5565b9050919050565b7f4950465320686173682063616e6e6f7420626520656d70747900000000000000600082015250565b600061224e6019836115f3565b915061225982612218565b602082019050919050565b6000602082019050818103600083015261227d81612241565b9050919050565b600061228f82611507565b91507fffffffffffffffffffffffffffffffffffffffffffffffffffffffffffffffff82036122c1576122c0611f46565b5b600182019050919050565b60008190508160005260206000209050919050565b60006020601f8301049050919050565b600082821b905092915050565b60006008830261232e7fffffffffffffffffffffffffffffffffffffffffffffffffffffffffffffffff826122f1565b61233886836122f1565b95508019841693508086168417925050509392505050565b6000819050919050565b600061237561237061236b84611507565b612350565b611507565b9050919050565b6000819050919050565b61238f8361235a565b6123a361239b8261237c565b8484546122fe565b825550505050565b600090565b6123b86123ab565b6123c3818484612386565b505050565b5b818110156123e7576123dc6000826123b0565b6001810190506123c9565b5050565b601f82111561242c576123fd816122cc565b612406846122e1565b81016020851015612415578190505b612429612421856122e1565b8301826123c8565b50505b505050565b600082821c905092915050565b600061244f60001984600802612431565b1980831691505092915050565b6000612468838361243e565b9150826002028217905092915050565b612481826115e8565b67ffffffffffffffff81111561249a57612499611771565b5b6124a4825461217b565b6124af8282856123eb565b600060209050601f8311600181146124e257600084156124d0578287015190505b6124da858261245c565b865550612542565b601f1984166124f0866122cc565b60005b82811015612518578489015182556001820191506020850194506020810190506124f3565b868310156125355784890151612531601f89168261243e565b8355505b6001600288020188555050505b505050505050565b60006040820190508181036000830152612564818561163f565b90506125736020830184611511565b9392505050565b7f4e487b7100000000000000000000000000000000000000000000000000000000600052603260045260246000fdfea26469706673582212205d0b34ba9f399e58a29ba77f26f625fdfd6200e2d36a24be6e432a2b7f92eee464736f6c63430008130033",
  "linkReferences": {},
  "deployedLinkReferences": {}
}